:100000000C9434000C9451000C9451000C94510049
:100010000C9451000C9451000C9451000C9451001C
:100020000C9451000C9451000C9451000C9451000C
:100030000C9451000C9451000C9451000C945100FC
:100040000C9451000C9451000C9451000C945100EC
:100050000C9451000C9451000C9451000C945100DC
:100060000C9451000C94510011241FBECFEFD8E026
:10007000DEBFCDBF11E0A0E0B1E0E4EEF4E002C0ED
:1000800005900D92A832B107D9F721E0A8E2B1E0BE
:1000900001C01D92AE32B207E1F70E94A1010C949B
:1000A00070020C940000559A5D982FEF89EF90E054
:1000B000215080409040E1F700C000005D9A089513
:1000C00055984D99FECF4D9BFECF4D99FECF08958B
:1000D00088E090E04D9BFECF20EA2A95F1F74D9BFA
:1000E00007C020912801220F21602093280105C01C
:1000F00020912801220F209328014D99FECF0197CE
:1001000049F78091280108951092B9008CE08093FE
:10011000B80084E08093BC00089584EA8093BC001A
:10012000ECEBF0E080818823ECF708958093BB002E
:1001300084E88093BC00ECEBF0E080818823ECF74E
:1001400008950F931F93CF93DF93C82FD82FD07F9D
:1001500080E1C89F800111240E948D008EE40E94DE
:1001600096008D2F8C600E94960087EC90E001979E
:10017000F1F700C000008D2F88600E9496008FE884
:1001800091E00197F1F700C00000802F8C600E9481
:10019000960087EC90E00197F1F700C00000802FF7
:1001A00088600E94960084E98093BC00C13031F4DD
:1001B0008FE39FE10197F1F700C00000DF91CF913D
:1001C0001F910F9108951F93CF93DF93C42F813018
:1001D00019F0823031F009C08FE7860F0E94A1002C
:1001E00004C08FEB860F0E94A1001C2F107F80E1BE
:1001F000C89FE00111240E948D008EE40E949600A9
:10020000812F8D600E94960087EC90E00197F1F7B6
:1002100000C00000812F89600E9496008FE891E065
:100220000197F1F700C000008C2F8D600E949600AE
:1002300087EC90E00197F1F700C000008C2F8960F7
:100240000E94960084E98093BC00DF91CF911F91BA
:1002500008950E948D008EE40E9496002FEF86E79D
:1002600091E0215080409040E1F700C000008CE315
:100270000E94960087EC90E00197F1F700C0000023
:1002800088E30E9496008FE39CE90197F1F700C094
:1002900000008CE30E94960087EC90E00197F1F754
:1002A00000C0000088E30E9496008FE39CE901975C
:1002B000F1F700C000008CE30E94960087EC90E00C
:1002C0000197F1F700C0000088E30E9496008FE3D9
:1002D0009CE90197F1F700C000008CE20E949600B3
:1002E00087EC90E00197F1F700C0000088E20E94DF
:1002F000960084E98093BC008FE39CE90197F1F7B5
:1003000000C0000088E20E94A10086E00E94A100D7
:1003100008950F931F93CF93DF93082FEA0148812D
:10032000442351F0219611E0160F802F0E94E30024
:100330004991612F4111F7CFDF91CF911F910F911B
:100340000895CF93DF9300D000D01F92CDB7DEB7D2
:1003500017B818B80E9484000E9429018CE00E94FE
:10036000A10081E00E94A1000E9453000E94600051
:100370000E94680080932C010E94680080932901EC
:100380000E94680080932B010E94680080932D01D9
:100390000E94680080932A01E0912C01F0E0909186
:1003A00029019F01290F311D90912B01290F311D2A
:1003B00090912D01290F311D482F50E0241735074A
:1003C00039F040E051E061E081E00E94890138C0ED
:1003D0004AE050E0BE016F5F7F4FCF010E943002C4
:1003E0004DE051E061E081E00E948901AE014F5F84
:1003F0005F4F6BE081E00E94890148E151E06DE0D0
:1004000081E00E94890180912B014AE050E0BE0109
:100410006F5F7F4F90E00E9430024AE151E061E05F
:1004200082E00E948901AE014F5F5F4F6BE082E086
:100430000E94890145E251E06DE082E00E9489015D
:100440002FEF87E893E1215080409040E1F700C012
:1004500000008CE00E94A10081E00E94A10084CFF6
:100460004532510520F4423010F00C943B02FB0160
:100470001082CB010895BB274A3031F4992322F42E
:10048000BDE2909581959F4F0C944702BB27FB01DD
:100490005527AA27880F991FAA1FA41710F0A41B7D
:1004A00083955051B9F7A05DAA3308F0A95DA193D7
:1004B000009779F7B111B1931192CB010C946002BE
:1004C000DC01FC01672F71917723E1F7329704C0BB
:1004D0007C916D9370836291AE17BF07C8F3089546
:0404E000F894FFCFBE
:1004E40053656E736F72204552524F520048756DBA
:1004F40069646974793A2000250054656D706572E9
:0805040061743A20004300007D
:00000001FF
